:1000440020646F757A6920262620646F7565722096
:100054000020646F757A69202D3E20646F75657287
:0200640020007A
:090066008FA07F0512006FD292F9
:10006F007EE8AD07EDD3940140031D80F71EBE015E
:01007F00F18F
:01008000225D
:0800C700C290120066C29222F1
:0800CF00D290120066C29222D9
:10008100C292C2917F381200C77F011200C77F0C54
:080091001200C77F060200C740
:100003007F901200C7E4F508E50890004493FF12BF
:1000130000CF7F0512006F0508E508C3941040E880
:100023007FD01200C7E4F508E50890005593FF124E
:1000330000CF7F0512006F0508E508C3941040E860
:01004300229A
:10009900E4F5087F181200C77F6412006F0508E5B0
:0700A90008C3941040ED2292
:0B00BC0012008112000312009980FB6B
:030000000200B04B
:0C00B000787FE4F6D8FD7581080200BCE2
:00000001FF
